:020000040800F2
:1000000000000220450400088B0400088D0400084D
:100010008F04000891040008930400080000000009
:10002000000000000000000000000000950400082F
:100030009704000800000000990400089B040008D1
:100040009F040008A1040008A3040008A5040008F8
:10005000A7040008A9040008AB040008AD040008C8
:10006000AF040008B1040008B3040008B504000898
:10007000B7040008B9040008BB040008BD04000868
:10008000BF040008C1040008C3040008C504000838
:10009000C7040008C9040008CB040008CD04000808
:1000A000CF040008D1040008D3040008D5040008D8
:1000B000D7040008D9040008DB040008DD040008A8
:1000C000DF040008E1040008E3040008E504000878
:1000D000E7040008E9040008EB040008ED04000848
:1000E000EF040008F1040008F3040008F504000818
:1000F000F7040008F9040008FB040008FD040008E8
:10010000FF040008010500080305000805050008B4
:1001100007050008090500080B0500080D05000883
:100120000F05000811050008130500081505000853
:1001300017050008190500081B0500081D05000823
:100140001F050008210500082305000825050008F3
:1001500027050008290500082B0500082D050008C3
:100160002F05000831050008330500083505000893
:1001700037050008390500083B0500083D05000863
:100180003F0500084105000810B5054C237833B938
:10019000044B13B10448AFF300800123237010BD5A
:1001A000BC00002000000000F4060008084B10B559
:1001B0001BB108490848AFF300800848036803B939
:1001C00010BD074B002BFBD0BDE81040184700BF07
:1001D00000000000C0000020F4060008BC00002061
:1001E00000000000154B002B08BF134B9D46A3F5E4
:1001F000803A00218B460F461348144A121A00F029
:100200005FFA0F4B002B00D098470E4B002B00D00D
:1002100098470020002104000D000D48002802D05E
:100220000C48AFF3008000F025FA2000290000F010
:10023000F1F800F00BFA00BF0000080000000220F7
:100240000000000000000000BC000020DC000020D6
:10025000000000000000000008B56FF0040000F08E
:100260006BF8084B084A1B6808480949A2FB03239E
:10027000C3F34753C3EB431203EB8202D200037074
:100280000A8008BD5000002083DE1B43D8000020F8
:10029000DA0000200C4B0D4A1B88002100FB03F004
:1002A00050609160136843F00103136013680749BD
:1002B00003F00113012BF9D00B68002223F0010396
:1002C0000B608A60704700BFDA00002010E000E099
:1002D0002DE9F041104C82B004F1500801250027AF
:1002E0000226E068012100F087F8143434F80C3C51
:1002F00054F8100C8DF8045069468DF806708DF88E
:1003000007508DF80560009300F022F84445E8D1CD
:1003100002B0BDE8F08100BF00000020054B00EBFB
:10032000800003EB80004268018953694B405361B0
:10033000704700BF00000020044A136804280CBF67
:1003400043F0040323F004031360704710E000E05F
:100350000022F0B513460126032704E00133102BD9
:1003600002F102022FD00D6806FA03F434EA050503
:10037000F4D1D0F800E007FA02F5ED430EEA050EDD
:10038000C0F800E091F804E0D0F800C00EFA02FED8
:100390004EEA0C0EC0F800E091F804E00EF1FF3ECA
:1003A000BEF1010F07FA02FC0ED9C46824EA0C045E
:1003B000C460CC79C568944001332C43102BC460D1
:1003C00002F10202CFD1F0BDD0F808E005EA0E0537
:1003D000856091F805E085680EFA02FE4EEA050593
:1003E0008560456825EA040444608C7945689C4032
:1003F000A4B22C434460D8E729B9054A136B23EA19
:10040000000010637047024B1A6B1043186370476B
:100410000038024008B500F099F8FFF71DFFFFF71C
:1004200057FF0020FFF77AFF0120FFF777FF022038
:10043000FFF774FF0320FFF771FF4FF47A70FFF7A7
:1004400029FFEEE70649074A074B9A42BEBF51F81B
:10045000040B42F8040BF8E70448804704480047BF
:100460000007000800000020BC0000204D05000827
:10047000E50100083349344A002301E041F8043B18
:100480009142FBD3FFF7C6FFFEE7FEE7FEE7FEE77C
:10049000FEE7FEE7FEE7FEE7FEE7FEE7FEE7FEE734
:1004A000FEE7FEE7FEE7FEE7FEE7FEE7FEE7FEE724
:1004B000FEE7FEE7FEE7FEE7FEE7FEE7FEE7FEE714
:1004C000FEE7FEE7FEE7FEE7FEE7FEE7FEE7FEE704
:1004D000FEE7FEE7FEE7FEE7FEE7FEE7FEE7FEE7F4
:1004E000FEE7FEE7FEE7FEE7FEE7FEE7FEE7FEE7E4
:1004F000FEE7FEE7FEE7FEE7FEE7FEE7FEE7FEE7D4
:10050000FEE7FEE7FEE7FEE7FEE7FEE7FEE7FEE7C3
:10051000FEE7FEE7FEE7FEE7FEE7FEE7FEE7FEE7B3
:10052000FEE7FEE7FEE7FEE7FEE7FEE7FEE7FEE7A3
:10053000FEE7FEE7FEE7FEE7FEE7FEE7FEE7FEE793
:10054000FEE70000BC000020DC00002039493A4BE7
:10055000D1F88820394842F47002C1F888201A681E
:10056000002142F001021A6099601A6822F0847238
:1005700022F480321A6058601A6882B022F4802215
:100580001A60D960009101911A6842F480321A60B1
:100590001A4603E0009BB3F5C06F09D0136803F45B
:1005A00000330193009B01330093019B002BF1D09A
:1005B000214B1B6813F4003318BF01230193019BE7
:1005C000012B05D01B4B4FF000629A6002B07047C0
:1005D000194B1B491A6C1B4842F080521A640A6876
:1005E00042F480420A609A689A609A6842F4004233
:1005F0009A609A6842F4A0529A6058601A6842F071
:1006000080721A601A4611680B4B8901FBD50E4A9D
:1006100040F2057111609A6822F003029A609A68AC
:1006200042F002029A601A46936803F00C03082B0A
:10063000FAD1C7E700ED00E0003802401030002496
:100640000070004019544007003C024008B5074BB9
:10065000044613B10021AFF30080054B1868836A8C
:1006600003B19847204600F033F800BF00000000B7
:10067000F006000870B50E4B0E4CE41AA4100025CD
:100680001E46A54204D056F8253098470135F8E7B4
:1006900000F020F8084C094BE41AA41000251E466F
:1006A000A54204D056F8253098470135F8E770BDCB
:1006B000B4000020B4000020B8000020B4000020E6
:1006C00002440346934202D003F8011BFAE7704745
:1006D000FEE70000F8B500BFF8BC08BC9E467047B6
:1006E000F8B500BFF8BC08BC9E4670474300000048
:0806F00054000020000000008E
:0806F800ECFAFF7F0100000095
:1007000000000000000C0240001000000800000083
:100710000000000001000000000C0240002000006A
:10072000080000000000000002000000000C024071
:10073000004000000800000000000000030000006E
:10074000000C0240008000000800000000000000D3
:10075000007A030A00000000000000000000000012
:100760000000000000000000000000000000000089
:1007700000000000EC06000800000000000000007F
:100780000000000000000000000000000000000069
:100790000000000000000000000000000000000059
:1007A0000000000000000000000000000000000049
:0C07B00000000000AD01000889010008F5
:0400000508000000EF
:00000001FF
