:020000040800F2
:1000000000000220D50400081B0500081D0500089B
:100010001F05000821050008230500080000000056
:10002000000000000000000000000000250500089E
:100030002705000800000000290500082B0500081E
:100040002F050008310500083305000835050008B4
:1000500037050008390500083B0500083D05000884
:100060003F05000841050008430500084505000854
:1000700047050008490500084B0500084D05000824
:100080004F050008510500085305000855050008F4
:1000900057050008590500085B0500085D050008C4
:1000A0005F05000861050008630500086505000894
:1000B00067050008690500086B0500086D05000864
:1000C0006F05000871050008730500087505000834
:1000D00077050008790500087B0500087D05000804
:1000E0007F050008810500088305000885050008D4
:1000F00087050008890500088B0500088D050008A4
:100100008F05000891050008930500089505000873
:1001100097050008990500089B0500089D05000843
:100120009F050008A1050008A3050008A505000813
:10013000A7050008A9050008AB050008AD050008E3
:10014000AF050008B1050008B3050008B5050008B3
:10015000B7050008B9050008BB050008BD05000883
:10016000BF050008C1050008C3050008C505000853
:10017000C7050008C9050008CB050008CD05000823
:10018000CF050008D105000810B5054C237833B918
:10019000044B13B10448AFF300800123237010BD5A
:1001A000BC0000200000000084070008084B10B5C8
:1001B0001BB108490848AFF300800848036803B939
:1001C00010BD074B002BFBD0BDE81040184700BF07
:1001D00000000000C000002084070008BC000020D0
:1001E00000000000154B002B08BF134B9D46A3F5E4
:1001F000803A00218B460F461348144A121A00F029
:10020000A7FA0F4B002B00D098470E4B002B00D0C5
:1002100098470020002104000D000D48002802D05E
:100220000C48AFF3008000F06DFA2000290000F0C8
:100230000FF900F053FA00BF000008000000022090
:100240000000000000000000BC000020DC000020D6
:10025000000000000000000008B56FF0040000F08E
:1002600083F8084B084A1B6808480949A2FB032386
:10027000C3F34753C3EB431203EB8202D200037074
:100280000A8008BD5000002083DE1B43D8000020F8
:10029000DA0000200C4B0D4A1B88002100FB03F004
:1002A00050609160136843F00103136013680749BD
:1002B00003F00113012BF9D00B68002223F0010396
:1002C0000B608A60704700BFDA00002010E000E099
:1002D0002DE9F041104C82B004F1500801250027AF
:1002E0000226E068012100F0A5F8143434F80C3C33
:1002F00054F8100C8DF8045069468DF806708DF88E
:1003000007508DF80560009300F03AF84445E8D1B5
:1003100002B0BDE8F08100BF00000020044B00EBFC
:10032000800003EB8000436802895A83704700BF56
:1003300000000020044B00EB800003EB80004368CA
:1003400002891A83704700BF00000020054B00EBB4
:10035000800003EB80004268018953694B40536180
:10036000704700BF00000020044A136804280CBF37
:1003700043F0040323F004031360704710E000E02F
:100380000022F0B513460126032704E00133102BA9
:1003900002F102022FD00D6806FA03F434EA0505D3
:1003A000F4D1D0F800E007FA02F5ED430EEA050EAD
:1003B000C0F800E091F804E0D0F800C00EFA02FEA8
:1003C0004EEA0C0EC0F800E091F804E00EF1FF3E9A
:1003D000BEF1010F07FA02FC0ED9C46824EA0C042E
:1003E000C460CC79C568944001332C43102BC460A1
:1003F00002F10202CFD1F0BDD0F808E005EA0E0507
:10040000856091F805E085680EFA02FE4EEA050562
:100410008560456825EA040444608C7945689C4001
:10042000A4B22C434460D8E70369194214BF0120E9
:100430000020704729B9054A136B23EA00001063B6
:100440007047024B1A6B1043186370470038024024
:1004500000B583B000F0C2F8FFF7FEFEFFF738FFEB
:1004600001210846FFF7E6FF012400220223694626
:10047000174800948DF804208DF806208DF8073079
:100480008DF80530FFF77CFF0FE00020FFF752FFEB
:100490000320FFF75BFF0120FFF740FF0220FFF77B
:1004A0003DFF4FF47A70FFF7F5FE01210848FFF792
:1004B000BBFF0028E9D1FFF731FF0320FFF72EFF34
:1004C0000120FFF743FF0220FFF734FFE9E700BFF9
:1004D000000002400649074A074B9A42BEBF51F846
:1004E000040B42F8040BF8E704488047044800472F
:1004F0009007000800000020BC000020DD05000877
:10050000E50100083349344A002301E041F8043B87
:100510009142FBD3FFF79CFFFEE7FEE7FEE7FEE715
:10052000FEE7FEE7FEE7FEE7FEE7FEE7FEE7FEE7A3
:10053000FEE7FEE7FEE7FEE7FEE7FEE7FEE7FEE793
:10054000FEE7FEE7FEE7FEE7FEE7FEE7FEE7FEE783
:10055000FEE7FEE7FEE7FEE7FEE7FEE7FEE7FEE773
:10056000FEE7FEE7FEE7FEE7FEE7FEE7FEE7FEE763
:10057000FEE7FEE7FEE7FEE7FEE7FEE7FEE7FEE753
:10058000FEE7FEE7FEE7FEE7FEE7FEE7FEE7FEE743
:10059000FEE7FEE7FEE7FEE7FEE7FEE7FEE7FEE733
:1005A000FEE7FEE7FEE7FEE7FEE7FEE7FEE7FEE723
:1005B000FEE7FEE7FEE7FEE7FEE7FEE7FEE7FEE713
:1005C000FEE7FEE7FEE7FEE7FEE7FEE7FEE7FEE703
:1005D000FEE70000BC000020DC00002039493A4B57
:1005E000D1F88820394842F47002C1F888201A688E
:1005F000002142F001021A6099601A6822F08472A8
:1006000022F480321A6058601A6882B022F4802284
:100610001A60D960009101911A6842F480321A6020
:100620001A4603E0009BB3F5C06F09D0136803F4CA
:1006300000330193009B01330093019B002BF1D009
:10064000214B1B6813F4003318BF01230193019B56
:10065000012B05D01B4B4FF000629A6002B070472F
:10066000194B1B491A6C1B4842F080521A640A68E5
:1006700042F480420A609A689A609A6842F40042A2
:100680009A609A6842F4A0529A6058601A6842F0E0
:1006900080721A601A4611680B4B8901FBD50E4A0D
:1006A00040F2057111609A6822F003029A609A681C
:1006B00042F002029A601A46936803F00C03082B7A
:1006C000FAD1C7E700ED00E0003802401030002406
:1006D0000070004019544007003C024008B5074B29
:1006E000044613B10021AFF30080054B1868836AFC
:1006F00003B19847204600F033F800BF0000000027
:100700008007000870B50E4B0E4CE41AA4100025AB
:100710001E46A54204D056F8253098470135F8E723
:1007200000F020F8084C094BE41AA41000251E46DE
:10073000A54204D056F8253098470135F8E770BD3A
:10074000B4000020B4000020B8000020B400002055
:1007500002440346934202D003F8011BFAE77047B4
:10076000FEE70000F8B500BFF8BC08BC9E46704725
:10077000F8B500BFF8BC08BC9E46704743000000B7
:080780005400002000000000FD
:080788005CFAFF7F0100000094
:1007900000000000000C02400010000008000000F3
:1007A0000000000001000000000C024000200000DA
:1007B000080000000000000002000000000C0240E1
:1007C00000400000080000000000000003000000DE
:1007D000000C024000800000080000000000000043
:1007E000007A030A00000000000000000000000082
:1007F00000000000000000000000000000000000F9
:10080000000000007C07000800000000000000005D
:1008100000000000000000000000000000000000D8
:1008200000000000000000000000000000000000C8
:1008300000000000000000000000000000000000B8
:0C08400000000000AD0100088901000864
:0400000508000000EF
:00000001FF
